{
  "address": "0x443fF416d506A7F021f638C685De61D81E489b1B",
  "abi": [
    {
      "inputs": [],
      "stateMutability": "nonpayable",
      "type": "constructor"
    },
    {
      "inputs": [],
      "name": "admin",
      "outputs": [
        {
          "internalType": "address",
          "name": "",
          "type": "address"
        }
      ],
      "stateMutability": "view",
      "type": "function"
    },
    {
      "inputs": [
        {
          "internalType": "address",
          "name": "target",
          "type": "address"
        },
        {
          "internalType": "bytes",
          "name": "data",
          "type": "bytes"
        }
      ],
      "name": "adminCall",
      "outputs": [],
      "stateMutability": "payable",
      "type": "function"
    },
    {
      "inputs": [
        {
          "internalType": "uint256",
          "name": "usdAmount",
          "type": "uint256"
        }
      ],
      "name": "convertUsdToWei",
      "outputs": [
        {
          "internalType": "uint256",
          "name": "weiAmount",
          "type": "uint256"
        }
      ],
      "stateMutability": "view",
      "type": "function"
    },
    {
      "inputs": [],
      "name": "getAdmin",
      "outputs": [
        {
          "internalType": "address",
          "name": "adminAddress",
          "type": "address"
        }
      ],
      "stateMutability": "view",
      "type": "function"
    },
    {
      "inputs": [
        {
          "internalType": "bytes",
          "name": "",
          "type": "bytes"
        }
      ],
      "name": "init",
      "outputs": [
        {
          "internalType": "bytes4",
          "name": "",
          "type": "bytes4"
        }
      ],
      "stateMutability": "nonpayable",
      "type": "function"
    },
    {
      "inputs": [
        {
          "internalType": "address",
          "name": "adminAddress",
          "type": "address"
        }
      ],
      "name": "setAdmin",
      "outputs": [],
      "stateMutability": "nonpayable",
      "type": "function"
    }
  ],
  "transactionHash": "0x9e62a9ca885052ba5c88a9aa6c44f03f2082997665d7210e4761db005638861d",
  "args": [],
  "numDeployments": 1,
  "solcInputHash": "c3a76247290deaf8c75360db19ab47a7",
  "bytecode": "0x608060405234801561001057600080fd5b50610a75806100206000396000f3fe6080604052600436106100655760003560e01c8063bf64a82d11610043578063bf64a82d14610137578063f5d781611461014a578063f851a4401461017857600080fd5b80634ddf47d41461006a5780636e9960c3146100c0578063704b6c0214610115575b600080fd5b34801561007657600080fd5b5061008a61008536600461076e565b61018d565b6040517fffffffff0000000000000000000000000000000000000000000000000000000090911681526020015b60405180910390f35b3480156100cc57600080fd5b507f3f106594dc74eeef980dae234cde8324dc2497b13d27a0c59e55bd2ca10a07c9545b60405173ffffffffffffffffffffffffffffffffffffffff90911681526020016100b7565b34801561012157600080fd5b50610135610130366004610866565b610296565b005b610135610145366004610888565b610370565b34801561015657600080fd5b5061016a61016536600461090b565b61044b565b6040519081526020016100b7565b34801561018457600080fd5b506100f06104a1565b60006101b77f4e5f991bca30eca2d4643aaefa807e88f96a4a97398933d572a3c0d973004a015490565b15610223576040517f08c379a000000000000000000000000000000000000000000000000000000000815260206004820152601e60248201527f484f4c4f47524150483a20616c726561647920696e697469616c697a6564000060448201526064015b60405180910390fd5b327f3f106594dc74eeef980dae234cde8324dc2497b13d27a0c59e55bd2ca10a07c95561026f60017f4e5f991bca30eca2d4643aaefa807e88f96a4a97398933d572a3c0d973004a0155565b507f4ddf47d400000000000000000000000000000000000000000000000000000000919050565b7f3f106594dc74eeef980dae234cde8324dc2497b13d27a0c59e55bd2ca10a07c95473ffffffffffffffffffffffffffffffffffffffff163373ffffffffffffffffffffffffffffffffffffffff161461034c576040517f08c379a000000000000000000000000000000000000000000000000000000000815260206004820152601e60248201527f484f4c4f47524150483a2061646d696e206f6e6c792066756e6374696f6e0000604482015260640161021a565b7f3f106594dc74eeef980dae234cde8324dc2497b13d27a0c59e55bd2ca10a07c955565b7f3f106594dc74eeef980dae234cde8324dc2497b13d27a0c59e55bd2ca10a07c95473ffffffffffffffffffffffffffffffffffffffff163373ffffffffffffffffffffffffffffffffffffffff1614610426576040517f08c379a000000000000000000000000000000000000000000000000000000000815260206004820152601e60248201527f484f4c4f47524150483a2061646d696e206f6e6c792066756e6374696f6e0000604482015260640161021a565b808260003760008082600034875af13d6000803e808015610446573d6000f35b3d6000fd5b60006004610458836104d0565b610461846105c8565b61046a85610677565b610473866106db565b61047d9190610953565b6104879190610953565b6104919190610953565b61049b919061096b565b92915050565b60006104cb7f3f106594dc74eeef980dae234cde8324dc2497b13d27a0c59e55bd2ca10a07c95490565b905090565b6000806000730d4a11d5eeaac28ec3f61d100daf4d40471f185273ffffffffffffffffffffffffffffffffffffffff16630902f1ac6040518163ffffffff1660e01b8152600401606060405180830381865afa158015610534573d6000803e3d6000fd5b505050506040513d601f19601f8201168201806040525081019061055891906109c4565b5090925090506dffffffffffffffffffffffffffff808316908216600061057f8784610a14565b61058b906103e8610a14565b905060006105998884610a51565b6105a5906103e5610a14565b90506105b1818361096b565b6105bc906001610953565b98975050505050505050565b600080600073b4e16d0168e52d35cacd2c6185b44281ec28c9dc73ffffffffffffffffffffffffffffffffffffffff16630902f1ac6040518163ffffffff1660e01b8152600401606060405180830381865afa15801561062c573d6000803e3d6000fd5b505050506040513d601f19601f8201168201806040525081019061065091906109c4565b5090925090506dffffffffffffffffffffffffffff808216908316600061057f8784610a14565b60008060007306da0fd433c1a5d7a4faa01111c044910a18455373ffffffffffffffffffffffffffffffffffffffff16630902f1ac6040518163ffffffff1660e01b8152600401606060405180830381865afa158015610534573d6000803e3d6000fd5b600080600073397ff1542f962076d0bfe58ea045ffa2d347aca073ffffffffffffffffffffffffffffffffffffffff16630902f1ac6040518163ffffffff1660e01b8152600401606060405180830381865afa15801561062c573d6000803e3d6000fd5b7f4e487b7100000000000000000000000000000000000000000000000000000000600052604160045260246000fd5b60006020828403121561078057600080fd5b813567ffffffffffffffff8082111561079857600080fd5b818401915084601f8301126107ac57600080fd5b8135818111156107be576107be61073f565b604051601f82017fffffffffffffffffffffffffffffffffffffffffffffffffffffffffffffffe0908116603f011681019083821181831017156108045761080461073f565b8160405282815287602084870101111561081d57600080fd5b826020860160208301376000928101602001929092525095945050505050565b803573ffffffffffffffffffffffffffffffffffffffff8116811461086157600080fd5b919050565b60006020828403121561087857600080fd5b6108818261083d565b9392505050565b60008060006040848603121561089d57600080fd5b6108a68461083d565b9250602084013567ffffffffffffffff808211156108c357600080fd5b818601915086601f8301126108d757600080fd5b8135818111156108e657600080fd5b8760208285010111156108f857600080fd5b6020830194508093505050509250925092565b60006020828403121561091d57600080fd5b5035919050565b7f4e487b7100000000000000000000000000000000000000000000000000000000600052601160045260246000fd5b6000821982111561096657610966610924565b500190565b6000826109a1577f4e487b7100000000000000000000000000000000000000000000000000000000600052601260045260246000fd5b500490565b80516dffffffffffffffffffffffffffff8116811461086157600080fd5b6000806000606084860312156109d957600080fd5b6109e2846109a6565b92506109f0602085016109a6565b9150604084015163ffffffff81168114610a0957600080fd5b809150509250925092565b6000817fffffffffffffffffffffffffffffffffffffffffffffffffffffffffffffffff0483118215151615610a4c57610a4c610924565b500290565b600082821015610a6357610a63610924565b50039056fea164736f6c634300080d000a",
  "devdoc": {
    "kind": "dev",
    "methods": {
      "constructor": {
        "details": "Constructor is left empty and init is used instead"
      },
      "convertUsdToWei(uint256)": {
        "details": "It is important to note that different USD stablecoins use different decimal places.",
        "params": {
          "usdAmount": "a 6 decimal places USD amount"
        }
      },
      "init(bytes)": {
        "details": "This function is called by the deployer/factory when creating a contract"
      }
    },
    "version": 1
  },
  "userdoc": {
    "kind": "user",
    "methods": {
      "convertUsdToWei(uint256)": {
        "notice": "Convert USD value to native gas token value"
      },
      "init(bytes)": {
        "notice": "Used internally to initialize the contract instead of through a constructor"
      }
    },
    "version": 1
  },
  "storageLayout": {
    "storage": [],
    "types": null
  }
}