{"abi":[{"type":"function","name":"completeSwap","inputs":[{"name":"_swapId","type":"uint256","internalType":"uint256"},{"name":"_secret","type":"bytes32","internalType":"bytes32"}],"outputs":[],"stateMutability":"nonpayable"},{"type":"function","name":"initiateSwap","inputs":[{"name":"_recipient","type":"address","internalType":"address"},{"name":"_token","type":"address","internalType":"address"},{"name":"_amount","type":"uint256","internalType":"uint256"},{"name":"_hashlock","type":"bytes32","internalType":"bytes32"},{"name":"_timelock","type":"uint256","internalType":"uint256"}],"outputs":[],"stateMutability":"nonpayable"},{"type":"function","name":"isValidateSecret","inputs":[{"name":"_swapId","type":"uint256","internalType":"uint256"},{"name":"_secret","type":"bytes32","internalType":"bytes32"}],"outputs":[{"name":"","type":"bool","internalType":"bool"}],"stateMutability":"view"},{"type":"function","name":"nextSwapId","inputs":[],"outputs":[{"name":"","type":"uint256","internalType":"uint256"}],"stateMutability":"view"},{"type":"function","name":"refundSwap","inputs":[{"name":"_swapId","type":"uint256","internalType":"uint256"}],"outputs":[],"stateMutability":"nonpayable"},{"type":"function","name":"swaps","inputs":[{"name":"","type":"uint256","internalType":"uint256"}],"outputs":[{"name":"initiator","type":"address","internalType":"address"},{"name":"recipient","type":"address","internalType":"address"},{"name":"token","type":"address","internalType":"address"},{"name":"amount","type":"uint256","internalType":"uint256"},{"name":"hashlock","type":"bytes32","internalType":"bytes32"},{"name":"timelock","type":"uint256","internalType":"uint256"},{"name":"completed","type":"bool","internalType":"bool"},{"name":"refunded","type":"bool","internalType":"bool"}],"stateMutability":"view"},{"type":"event","name":"SwapCompleted","inputs":[{"name":"swapId","type":"uint256","indexed":true,"internalType":"uint256"},{"name":"secret","type":"bytes32","indexed":false,"internalType":"bytes32"}],"anonymous":false},{"type":"event","name":"SwapInitiated","inputs":[{"name":"swapId","type":"uint256","indexed":true,"internalType":"uint256"},{"name":"initiator","type":"address","indexed":true,"internalType":"address"},{"name":"recipient","type":"address","indexed":true,"internalType":"address"},{"name":"token","type":"address","indexed":false,"internalType":"address"},{"name":"amount","type":"uint256","indexed":false,"internalType":"uint256"},{"name":"hashlock","type":"bytes32","indexed":false,"internalType":"bytes32"},{"name":"timelock","type":"uint256","indexed":false,"internalType":"uint256"}],"anonymous":false},{"type":"event","name":"SwapRefunded","inputs":[{"name":"swapId","type":"uint256","indexed":true,"internalType":"uint256"}],"anonymous":false}],"bytecode":{"object":"0x6080604052348015600f57600080fd5b50610bf58061001f6000396000f3fe608060405234801561001057600080fd5b50600436106100625760003560e01c80636463d7bd1461006757806368eb51551461007c57806381b647b41461009857806382489981146100ab578063e4ca5dc4146100be578063f09c5829146100e1575b600080fd5b61007a610075366004610a40565b610194565b005b61008560015481565b6040519081526020015b60405180910390f35b61007a6100a6366004610a59565b6103ea565b61007a6100b9366004610a97565b6106d7565b6100d16100cc366004610a59565b610916565b604051901515815260200161008f565b6101466100ef366004610a40565b60006020819052908152604090208054600182015460028301546003840154600485015460058601546006909601546001600160a01b03958616969486169590931693919290919060ff8082169161010090041688565b604080516001600160a01b03998a168152978916602089015295909716948601949094526060850192909252608084015260a0830152151560c082015290151560e08201526101000161008f565b60008181526020819052604090205481906001600160a01b03166101d35760405162461bcd60e51b81526004016101ca90610ae4565b60405180910390fd5b60008281526020819052604090205482906001600160a01b031633146102305760405162461bcd60e51b81526020600482015260126024820152712737ba1039bbb0b81034b734ba34b0ba37b960711b60448201526064016101ca565b600083815260208190526040902060050154839042106102855760405162461bcd60e51b815260206004820152601060248201526f151a5b595b1bd8dac8195e1c1a5c995960821b60448201526064016101ca565b6000848152602081905260409020600681015460ff16156102e15760405162461bcd60e51b815260206004820152601660248201527514ddd85c08185b1c9958591e4818dbdb5c1b195d195960521b60448201526064016101ca565b6006810154610100900460ff161561030b5760405162461bcd60e51b81526004016101ca90610b11565b60068101805461ff00191661010017905560028101548154600383015460405163a9059cbb60e01b81526001600160a01b039283166004820152602481019190915291169063a9059cbb906044016020604051808303816000875af1158015610378573d6000803e3d6000fd5b505050506040513d601f19601f8201168201806040525081019061039c9190610b40565b6103b85760405162461bcd60e51b81526004016101ca90610b69565b60405185907fe86663c160b6d3b8cec7d33acbd61f2bb9f7f3d8c314a03cd9745007f1c0104890600090a25050505050565b60008281526020819052604090205482906001600160a01b03166104205760405162461bcd60e51b81526004016101ca90610ae4565b60008381526020819052604090206001015483906001600160a01b031633146104805760405162461bcd60e51b8152602060048201526012602482015271139bdd081cddd85c081c9958da5c1a595b9d60721b60448201526064016101ca565b60008481526020819052604090206005015484904210156104da5760405162461bcd60e51b8152602060048201526014602482015273151a5b595b1bd8dac81b9bdd08195e1c1a5c995960621b60448201526064016101ca565b6000858152602081905260409020600681015460ff16156105365760405162461bcd60e51b815260206004820152601660248201527514ddd85c08185b1c9958591e4818dbdb5c1b195d195960521b60448201526064016101ca565b6006810154610100900460ff16156105605760405162461bcd60e51b81526004016101ca90610b11565b60048101546001820154604080516020810189905260609290921b6bffffffffffffffffffffffff19169082015260540160405160208183030381529060405280519060200120146105e55760405162461bcd60e51b815260206004820152600e60248201526d125b9d985b1a59081cd958dc995d60921b60448201526064016101ca565b60068101805460ff19166001908117909155600282015490820154600383015460405163a9059cbb60e01b81526001600160a01b039283166004820152602481019190915291169063a9059cbb906044016020604051808303816000875af1158015610655573d6000803e3d6000fd5b505050506040513d601f19601f820116820180604052508101906106799190610b40565b6106955760405162461bcd60e51b81526004016101ca90610b69565b857f1c9180097d4d416569898798a24af25e9121c0757a6440b0dd6f5b1f1caddb87866040516106c791815260200190565b60405180910390a2505050505050565b6001546000908152602081905260409020546001600160a01b0316156107355760405162461bcd60e51b81526020600482015260136024820152725377617020616c72656164792065786973747360681b60448201526064016101ca565b6040805161010080820183523382526001600160a01b038881166020808501918252898316858701908152606086018a8152608087018a815260a088018a8152600060c08a0181815260e08b01828152600180548452978390529b82209a518b54908a166001600160a01b0319918216178c5597518b88018054918b16918a16919091179055945160028b0180549190991697169690961790965590516003880155516004870155925160058601559151600690940180549551151590930261ff00199415159490941661ffff199095169490941792909217905580549161081c83610b98565b90915550506040516323b872dd60e01b8152336004820152306024820152604481018490526001600160a01b038516906323b872dd906064016020604051808303816000875af1158015610874573d6000803e3d6000fd5b505050506040513d601f19601f820116820180604052508101906108989190610b40565b6108b45760405162461bcd60e51b81526004016101ca90610b69565b600154604080516001600160a01b03878116825260208201879052918101859052606081018490529087169133917fe953222a7f61b396a3aa89d8e389132711531f104f5a18a10bde46c3f5b85ca39060800160405180910390a45050505050565b60008281526020819052604081205483906001600160a01b031661094c5760405162461bcd60e51b81526004016101ca90610ae4565b600084815260208181526040918290208251610100808201855282546001600160a01b03908116835260018401548116948301949094526002830154909316938101939093526003810154606084015260048101546080840152600581015460a08401526006015460ff808216151560c08501529190041615801560e08301526109e85760405162461bcd60e51b81526004016101ca90610b11565b8060800151848260200151604051602001610a1f92919091825260601b6bffffffffffffffffffffffff1916602082015260340190565b60405160208183030381529060405280519060200120149250505092915050565b600060208284031215610a5257600080fd5b5035919050565b60008060408385031215610a6c57600080fd5b50508035926020909101359150565b80356001600160a01b0381168114610a9257600080fd5b919050565b600080600080600060a08688031215610aaf57600080fd5b610ab886610a7b565b9450610ac660208701610a7b565b94979496505050506040830135926060810135926080909101359150565b60208082526013908201527214ddd85c08191bd95cc81b9bdd08195e1a5cdd606a1b604082015260600190565b60208082526015908201527414ddd85c08185b1c9958591e481c99599d5b991959605a1b604082015260600190565b600060208284031215610b5257600080fd5b81518015158114610b6257600080fd5b9392505050565b602080825260159082015274151bdad95b881d1c985b9cd9995c8819985a5b1959605a1b604082015260600190565b600060018201610bb857634e487b7160e01b600052601160045260246000fd5b506001019056fea2646970667358221220f633377517cae4dbda0dc7fb9d68dec7a2c053a4c7763860bee10e0953e66c6564736f6c634300081c0033","linkReferences":{}},"methodIdentifiers":{"completeSwap(uint256,bytes32)":"81b647b4","initiateSwap(address,address,uint256,bytes32,uint256)":"82489981","isValidateSecret(uint256,bytes32)":"e4ca5dc4","nextSwapId()":"68eb5155","refundSwap(uint256)":"6463d7bd","swaps(uint256)":"f09c5829"},"id":28}