{
  "address": "0xB6Eb09cd3718A37ebf17887C9b8c73306591b908",
  "abi": [
    {
      "inputs": [],
      "stateMutability": "nonpayable",
      "type": "constructor"
    },
    {
      "inputs": [],
      "name": "admin",
      "outputs": [
        {
          "internalType": "address",
          "name": "",
          "type": "address"
        }
      ],
      "stateMutability": "view",
      "type": "function"
    },
    {
      "inputs": [
        {
          "internalType": "address",
          "name": "target",
          "type": "address"
        },
        {
          "internalType": "bytes",
          "name": "data",
          "type": "bytes"
        }
      ],
      "name": "adminCall",
      "outputs": [],
      "stateMutability": "payable",
      "type": "function"
    },
    {
      "inputs": [
        {
          "internalType": "uint256",
          "name": "usdAmount",
          "type": "uint256"
        }
      ],
      "name": "convertUsdToWei",
      "outputs": [
        {
          "internalType": "uint256",
          "name": "weiAmount",
          "type": "uint256"
        }
      ],
      "stateMutability": "view",
      "type": "function"
    },
    {
      "inputs": [],
      "name": "getAdmin",
      "outputs": [
        {
          "internalType": "address",
          "name": "adminAddress",
          "type": "address"
        }
      ],
      "stateMutability": "view",
      "type": "function"
    },
    {
      "inputs": [
        {
          "internalType": "bytes",
          "name": "",
          "type": "bytes"
        }
      ],
      "name": "init",
      "outputs": [
        {
          "internalType": "bytes4",
          "name": "",
          "type": "bytes4"
        }
      ],
      "stateMutability": "nonpayable",
      "type": "function"
    },
    {
      "inputs": [
        {
          "internalType": "address",
          "name": "adminAddress",
          "type": "address"
        }
      ],
      "name": "setAdmin",
      "outputs": [],
      "stateMutability": "nonpayable",
      "type": "function"
    }
  ],
  "transactionHash": "0x8cab55b9f8ec3988a861c6283b3d231b959151d4e766ed9221fe91c36afddf5f",
  "args": [],
  "numDeployments": 1,
  "solcInputHash": "75fadfc1e56dbb9cf45c0523a0f6e154",
  "bytecode": "0x608060405234801561001057600080fd5b50610946806100206000396000f3fe6080604052600436106100655760003560e01c8063bf64a82d11610043578063bf64a82d14610137578063f5d781611461014a578063f851a4401461017857600080fd5b80634ddf47d41461006a5780636e9960c3146100c0578063704b6c0214610115575b600080fd5b34801561007657600080fd5b5061008a61008536600461066a565b61018d565b6040517fffffffff0000000000000000000000000000000000000000000000000000000090911681526020015b60405180910390f35b3480156100cc57600080fd5b507f3f106594dc74eeef980dae234cde8324dc2497b13d27a0c59e55bd2ca10a07c9545b60405173ffffffffffffffffffffffffffffffffffffffff90911681526020016100b7565b34801561012157600080fd5b50610135610130366004610762565b610296565b005b610135610145366004610784565b610370565b34801561015657600080fd5b5061016a610165366004610807565b61044b565b6040519081526020016100b7565b34801561018457600080fd5b506100f061048b565b60006101b77f4e5f991bca30eca2d4643aaefa807e88f96a4a97398933d572a3c0d973004a015490565b15610223576040517f08c379a000000000000000000000000000000000000000000000000000000000815260206004820152601e60248201527f484f4c4f47524150483a20616c726561647920696e697469616c697a6564000060448201526064015b60405180910390fd5b327f3f106594dc74eeef980dae234cde8324dc2497b13d27a0c59e55bd2ca10a07c95561026f60017f4e5f991bca30eca2d4643aaefa807e88f96a4a97398933d572a3c0d973004a0155565b507f4ddf47d400000000000000000000000000000000000000000000000000000000919050565b7f3f106594dc74eeef980dae234cde8324dc2497b13d27a0c59e55bd2ca10a07c95473ffffffffffffffffffffffffffffffffffffffff163373ffffffffffffffffffffffffffffffffffffffff161461034c576040517f08c379a000000000000000000000000000000000000000000000000000000000815260206004820152601e60248201527f484f4c4f47524150483a2061646d696e206f6e6c792066756e6374696f6e0000604482015260640161021a565b7f3f106594dc74eeef980dae234cde8324dc2497b13d27a0c59e55bd2ca10a07c955565b7f3f106594dc74eeef980dae234cde8324dc2497b13d27a0c59e55bd2ca10a07c95473ffffffffffffffffffffffffffffffffffffffff163373ffffffffffffffffffffffffffffffffffffffff1614610426576040517f08c379a000000000000000000000000000000000000000000000000000000000815260206004820152601e60248201527f484f4c4f47524150483a2061646d696e206f6e6c792066756e6374696f6e0000604482015260640161021a565b808260003760008082600034875af13d6000803e808015610446573d6000f35b3d6000fd5b60008160000361045d57506000919050565b6002610468836104ba565b610471846105af565b61047b919061084f565b6104859190610867565b92915050565b60006104b57f3f106594dc74eeef980dae234cde8324dc2497b13d27a0c59e55bd2ca10a07c95490565b905090565b6040517f964f987c0000000000000000000000000000000000000000000000000000000081527387eb2f90d7d0034571f343fb7429ae22c1bd9f7260048201526fffffffffffffffffffffffffffffffff821660248201526001604482015260009081908190819073b4315e873dbcf96ffd0acd8ea43f689d8c20fb309063964f987c906064015b606060405180830381865afa15801561055f573d6000803e3d6000fd5b505050506040513d601f19601f8201168201806040525081019061058391906108c2565b919450925090506105948184610905565b6fffffffffffffffffffffffffffffffff1695945050505050565b6040517f964f987c00000000000000000000000000000000000000000000000000000000815273d446eb1660f766d533beceef890df7a69d26f7d160048201526fffffffffffffffffffffffffffffffff821660248201526001604482015260009081908190819073b4315e873dbcf96ffd0acd8ea43f689d8c20fb309063964f987c90606401610542565b7f4e487b7100000000000000000000000000000000000000000000000000000000600052604160045260246000fd5b60006020828403121561067c57600080fd5b813567ffffffffffffffff8082111561069457600080fd5b818401915084601f8301126106a857600080fd5b8135818111156106ba576106ba61063b565b604051601f82017fffffffffffffffffffffffffffffffffffffffffffffffffffffffffffffffe0908116603f011681019083821181831017156107005761070061063b565b8160405282815287602084870101111561071957600080fd5b826020860160208301376000928101602001929092525095945050505050565b803573ffffffffffffffffffffffffffffffffffffffff8116811461075d57600080fd5b919050565b60006020828403121561077457600080fd5b61077d82610739565b9392505050565b60008060006040848603121561079957600080fd5b6107a284610739565b9250602084013567ffffffffffffffff808211156107bf57600080fd5b818601915086601f8301126107d357600080fd5b8135818111156107e257600080fd5b8760208285010111156107f457600080fd5b6020830194508093505050509250925092565b60006020828403121561081957600080fd5b5035919050565b7f4e487b7100000000000000000000000000000000000000000000000000000000600052601160045260246000fd5b6000821982111561086257610862610820565b500190565b60008261089d577f4e487b7100000000000000000000000000000000000000000000000000000000600052601260045260246000fd5b500490565b80516fffffffffffffffffffffffffffffffff8116811461075d57600080fd5b6000806000606084860312156108d757600080fd5b6108e0846108a2565b92506108ee602085016108a2565b91506108fc604085016108a2565b90509250925092565b60006fffffffffffffffffffffffffffffffff80831681851680830382111561093057610930610820565b0194935050505056fea164736f6c634300080d000a",
  "devdoc": {
    "kind": "dev",
    "methods": {
      "constructor": {
        "details": "Constructor is left empty and init is used instead"
      },
      "convertUsdToWei(uint256)": {
        "details": "It is important to note that different USD stablecoins use different decimal places.",
        "params": {
          "usdAmount": "a 6 decimal places USD amount"
        }
      },
      "init(bytes)": {
        "details": "This function is called by the deployer/factory when creating a contract"
      }
    },
    "version": 1
  },
  "userdoc": {
    "kind": "user",
    "methods": {
      "convertUsdToWei(uint256)": {
        "notice": "Convert USD value to native gas token value"
      },
      "init(bytes)": {
        "notice": "Used internally to initialize the contract instead of through a constructor"
      }
    },
    "version": 1
  },
  "storageLayout": {
    "storage": [],
    "types": null
  }
}